{
  "contractName": "Tender",
  "abi": [
    {
      "inputs": [],
      "stateMutability": "nonpayable",
      "type": "constructor"
    },
    {
      "anonymous": false,
      "inputs": [
        {
          "indexed": true,
          "internalType": "uint256",
          "name": "bidId",
          "type": "uint256"
        },
        {
          "indexed": true,
          "internalType": "address",
          "name": "contractor",
          "type": "address"
        },
        {
          "indexed": false,
          "internalType": "uint256",
          "name": "bidAmount",
          "type": "uint256"
        }
      ],
      "name": "BidAwarded",
      "type": "event"
    },
    {
      "anonymous": false,
      "inputs": [
        {
          "indexed": true,
          "internalType": "uint256",
          "name": "bidId",
          "type": "uint256"
        },
        {
          "indexed": false,
          "internalType": "uint256",
          "name": "amount",
          "type": "uint256"
        },
        {
          "indexed": false,
          "internalType": "uint256",
          "name": "duration",
          "type": "uint256"
        },
        {
          "indexed": true,
          "internalType": "uint256",
          "name": "contractId",
          "type": "uint256"
        }
      ],
      "name": "BidCreated",
      "type": "event"
    },
    {
      "anonymous": false,
      "inputs": [
        {
          "indexed": true,
          "internalType": "uint256",
          "name": "bidId",
          "type": "uint256"
        },
        {
          "indexed": true,
          "internalType": "uint256",
          "name": "contractId",
          "type": "uint256"
        },
        {
          "indexed": false,
          "internalType": "uint256",
          "name": "amount",
          "type": "uint256"
        },
        {
          "indexed": false,
          "internalType": "uint256",
          "name": "duration",
          "type": "uint256"
        }
      ],
      "name": "BidSubmitted",
      "type": "event"
    },
    {
      "anonymous": false,
      "inputs": [
        {
          "indexed": true,
          "internalType": "uint256",
          "name": "bidId",
          "type": "uint256"
        }
      ],
      "name": "BidWithdrawn",
      "type": "event"
    },
    {
      "anonymous": false,
      "inputs": [
        {
          "indexed": true,
          "internalType": "address",
          "name": "contractor",
          "type": "address"
        },
        {
          "indexed": false,
          "internalType": "uint256",
          "name": "paymentAmount",
          "type": "uint256"
        }
      ],
      "name": "BidderPaid",
      "type": "event"
    },
    {
      "anonymous": false,
      "inputs": [
        {
          "indexed": true,
          "internalType": "uint256",
          "name": "contractId",
          "type": "uint256"
        }
      ],
      "name": "ContractCanceled",
      "type": "event"
    },
    {
      "anonymous": false,
      "inputs": [
        {
          "indexed": true,
          "internalType": "uint256",
          "name": "contractId",
          "type": "uint256"
        }
      ],
      "name": "ContractClosed",
      "type": "event"
    },
    {
      "anonymous": false,
      "inputs": [
        {
          "indexed": true,
          "internalType": "uint256",
          "name": "contractId",
          "type": "uint256"
        },
        {
          "indexed": false,
          "internalType": "string",
          "name": "description",
          "type": "string"
        },
        {
          "indexed": false,
          "internalType": "uint256",
          "name": "bidDeadline",
          "type": "uint256"
        },
        {
          "indexed": false,
          "internalType": "uint256",
          "name": "dailyPenaltyPerThousand",
          "type": "uint256"
        },
        {
          "indexed": false,
          "internalType": "uint256",
          "name": "maxPenaltyPercent",
          "type": "uint256"
        }
      ],
      "name": "ContractCreated",
      "type": "event"
    },
    {
      "anonymous": false,
      "inputs": [
        {
          "indexed": true,
          "internalType": "uint256",
          "name": "contractId",
          "type": "uint256"
        },
        {
          "indexed": false,
          "internalType": "enum Tender.ContractStatus",
          "name": "contractStatus",
          "type": "uint8"
        }
      ],
      "name": "ContractStatusChanged",
      "type": "event"
    },
    {
      "anonymous": false,
      "inputs": [
        {
          "indexed": true,
          "internalType": "address",
          "name": "contractor",
          "type": "address"
        },
        {
          "indexed": false,
          "internalType": "string",
          "name": "name",
          "type": "string"
        }
      ],
      "name": "ContractorAdded",
      "type": "event"
    },
    {
      "inputs": [
        {
          "internalType": "uint256",
          "name": "",
          "type": "uint256"
        }
      ],
      "name": "bids",
      "outputs": [
        {
          "internalType": "uint256",
          "name": "bidId",
          "type": "uint256"
        },
        {
          "internalType": "address",
          "name": "contractor",
          "type": "address"
        },
        {
          "internalType": "uint256",
          "name": "amount",
          "type": "uint256"
        },
        {
          "internalType": "uint256",
          "name": "duration",
          "type": "uint256"
        },
        {
          "internalType": "uint256",
          "name": "contractId",
          "type": "uint256"
        },
        {
          "internalType": "enum Tender.BidStatus",
          "name": "bidStatus",
          "type": "uint8"
        }
      ],
      "stateMutability": "view",
      "type": "function"
    },
    {
      "inputs": [
        {
          "internalType": "address",
          "name": "",
          "type": "address"
        }
      ],
      "name": "contractors",
      "outputs": [
        {
          "internalType": "address",
          "name": "contractor",
          "type": "address"
        },
        {
          "internalType": "string",
          "name": "name",
          "type": "string"
        }
      ],
      "stateMutability": "view",
      "type": "function"
    },
    {
      "inputs": [
        {
          "internalType": "uint256",
          "name": "",
          "type": "uint256"
        }
      ],
      "name": "contracts",
      "outputs": [
        {
          "internalType": "uint256",
          "name": "contractId",
          "type": "uint256"
        },
        {
          "internalType": "string",
          "name": "description",
          "type": "string"
        },
        {
          "internalType": "uint256",
          "name": "bidDeadline",
          "type": "uint256"
        },
        {
          "internalType": "uint256",
          "name": "bidAmount",
          "type": "uint256"
        },
        {
          "internalType": "uint256",
          "name": "dailyPenaltyPerThousand",
          "type": "uint256"
        },
        {
          "internalType": "uint256",
          "name": "maxPenaltyPercent",
          "type": "uint256"
        },
        {
          "internalType": "address",
          "name": "awardedTo",
          "type": "address"
        },
        {
          "internalType": "enum Tender.ContractStatus",
          "name": "contractStatus",
          "type": "uint8"
        },
        {
          "internalType": "bool",
          "name": "isPaid",
          "type": "bool"
        },
        {
          "internalType": "uint256",
          "name": "plannedDuration",
          "type": "uint256"
        },
        {
          "internalType": "uint256",
          "name": "workStarted",
          "type": "uint256"
        },
        {
          "internalType": "uint256",
          "name": "workCompleted",
          "type": "uint256"
        }
      ],
      "stateMutability": "view",
      "type": "function"
    },
    {
      "inputs": [],
      "name": "owner",
      "outputs": [
        {
          "internalType": "address",
          "name": "",
          "type": "address"
        }
      ],
      "stateMutability": "view",
      "type": "function"
    },
    {
      "inputs": [
        {
          "internalType": "address",
          "name": "_newOwner",
          "type": "address"
        }
      ],
      "name": "setOwner",
      "outputs": [],
      "stateMutability": "nonpayable",
      "type": "function"
    },
    {
      "inputs": [
        {
          "internalType": "string",
          "name": "name",
          "type": "string"
        }
      ],
      "name": "addContractor",
      "outputs": [],
      "stateMutability": "nonpayable",
      "type": "function"
    },
    {
      "inputs": [
        {
          "internalType": "string",
          "name": "description",
          "type": "string"
        },
        {
          "internalType": "uint256",
          "name": "bidDeadline",
          "type": "uint256"
        },
        {
          "internalType": "uint256",
          "name": "dailyPenaltyPerThousand",
          "type": "uint256"
        },
        {
          "internalType": "uint256",
          "name": "maxPenaltyPercent",
          "type": "uint256"
        }
      ],
      "name": "createContract",
      "outputs": [],
      "stateMutability": "nonpayable",
      "type": "function"
    },
    {
      "inputs": [
        {
          "internalType": "uint256",
          "name": "contractId",
          "type": "uint256"
        }
      ],
      "name": "cancelContract",
      "outputs": [],
      "stateMutability": "nonpayable",
      "type": "function"
    },
    {
      "inputs": [
        {
          "internalType": "uint256",
          "name": "contractId",
          "type": "uint256"
        }
      ],
      "name": "closeContract",
      "outputs": [],
      "stateMutability": "nonpayable",
      "type": "function"
    },
    {
      "inputs": [
        {
          "internalType": "uint256",
          "name": "amount",
          "type": "uint256"
        },
        {
          "internalType": "uint256",
          "name": "duration",
          "type": "uint256"
        },
        {
          "internalType": "uint256",
          "name": "contractId",
          "type": "uint256"
        }
      ],
      "name": "submitBid",
      "outputs": [],
      "stateMutability": "nonpayable",
      "type": "function"
    },
    {
      "inputs": [
        {
          "internalType": "uint256",
          "name": "bidId",
          "type": "uint256"
        }
      ],
      "name": "withdrawBid",
      "outputs": [],
      "stateMutability": "nonpayable",
      "type": "function"
    },
    {
      "inputs": [
        {
          "internalType": "uint256",
          "name": "bidId",
          "type": "uint256"
        }
      ],
      "name": "awardBid",
      "outputs": [],
      "stateMutability": "nonpayable",
      "type": "function"
    },
    {
      "inputs": [
        {
          "internalType": "uint256",
          "name": "contractId",
          "type": "uint256"
        }
      ],
      "name": "depositContractAmount",
      "outputs": [],
      "stateMutability": "payable",
      "type": "function"
    },
    {
      "inputs": [
        {
          "internalType": "uint256",
          "name": "contractId",
          "type": "uint256"
        }
      ],
      "name": "startWorkInContract",
      "outputs": [],
      "stateMutability": "nonpayable",
      "type": "function"
    },
    {
      "inputs": [
        {
          "internalType": "uint256",
          "name": "contractId",
          "type": "uint256"
        }
      ],
      "name": "completeWorkInContract",
      "outputs": [],
      "stateMutability": "nonpayable",
      "type": "function"
    },
    {
      "inputs": [
        {
          "internalType": "uint256",
          "name": "contractId",
          "type": "uint256"
        }
      ],
      "name": "payAwardedBid",
      "outputs": [],
      "stateMutability": "nonpayable",
      "type": "function"
    },
    {
      "inputs": [
        {
          "internalType": "uint256",
          "name": "contractId",
          "type": "uint256"
        }
      ],
      "name": "calculatePayment",
      "outputs": [
        {
          "internalType": "uint256",
          "name": "",
          "type": "uint256"
        }
      ],
      "stateMutability": "view",
      "type": "function"
    },
    {
      "inputs": [],
      "name": "getOpenContracts",
      "outputs": [
        {
          "components": [
            {
              "internalType": "uint256",
              "name": "contractId",
              "type": "uint256"
            },
            {
              "internalType": "string",
              "name": "description",
              "type": "string"
            },
            {
              "internalType": "uint256",
              "name": "bidDeadline",
              "type": "uint256"
            },
            {
              "internalType": "uint256",
              "name": "bidAmount",
              "type": "uint256"
            },
            {
              "internalType": "uint256",
              "name": "dailyPenaltyPerThousand",
              "type": "uint256"
            },
            {
              "internalType": "uint256",
              "name": "maxPenaltyPercent",
              "type": "uint256"
            },
            {
              "internalType": "address",
              "name": "awardedTo",
              "type": "address"
            },
            {
              "internalType": "enum Tender.ContractStatus",
              "name": "contractStatus",
              "type": "uint8"
            },
            {
              "internalType": "uint256[]",
              "name": "bidIds",
              "type": "uint256[]"
            },
            {
              "internalType": "bool",
              "name": "isPaid",
              "type": "bool"
            },
            {
              "internalType": "uint256",
              "name": "plannedDuration",
              "type": "uint256"
            },
            {
              "internalType": "uint256",
              "name": "workStarted",
              "type": "uint256"
            },
            {
              "internalType": "uint256",
              "name": "workCompleted",
              "type": "uint256"
            }
          ],
          "internalType": "struct Tender.Contract[]",
          "name": "",
          "type": "tuple[]"
        }
      ],
      "stateMutability": "view",
      "type": "function"
    },
    {
      "inputs": [],
      "name": "getContracts",
      "outputs": [
        {
          "components": [
            {
              "internalType": "uint256",
              "name": "contractId",
              "type": "uint256"
            },
            {
              "internalType": "string",
              "name": "description",
              "type": "string"
            },
            {
              "internalType": "uint256",
              "name": "bidDeadline",
              "type": "uint256"
            },
            {
              "internalType": "uint256",
              "name": "bidAmount",
              "type": "uint256"
            },
            {
              "internalType": "uint256",
              "name": "dailyPenaltyPerThousand",
              "type": "uint256"
            },
            {
              "internalType": "uint256",
              "name": "maxPenaltyPercent",
              "type": "uint256"
            },
            {
              "internalType": "address",
              "name": "awardedTo",
              "type": "address"
            },
            {
              "internalType": "enum Tender.ContractStatus",
              "name": "contractStatus",
              "type": "uint8"
            },
            {
              "internalType": "uint256[]",
              "name": "bidIds",
              "type": "uint256[]"
            },
            {
              "internalType": "bool",
              "name": "isPaid",
              "type": "bool"
            },
            {
              "internalType": "uint256",
              "name": "plannedDuration",
              "type": "uint256"
            },
            {
              "internalType": "uint256",
              "name": "workStarted",
              "type": "uint256"
            },
            {
              "internalType": "uint256",
              "name": "workCompleted",
              "type": "uint256"
            }
          ],
          "internalType": "struct Tender.Contract[]",
          "name": "",
          "type": "tuple[]"
        }
      ],
      "stateMutability": "view",
      "type": "function"
    },
    {
      "inputs": [
        {
          "internalType": "uint256",
          "name": "_contractId",
          "type": "uint256"
        }
      ],
      "name": "resetContract",
      "outputs": [],
      "stateMutability": "nonpayable",
      "type": "function"
    },
    {
      "inputs": [],
      "name": "getOwner",
      "outputs": [
        {
          "internalType": "address",
          "name": "",
          "type": "address"
        }
      ],
      "stateMutability": "view",
      "type": "function"
    },
    {
      "inputs": [
        {
          "internalType": "address",
          "name": "contractor",
          "type": "address"
        }
      ],
      "name": "getContractor",
      "outputs": [
        {
          "components": [
            {
              "internalType": "address",
              "name": "contractor",
              "type": "address"
            },
            {
              "internalType": "string",
              "name": "name",
              "type": "string"
            }
          ],
          "internalType": "struct Tender.Contractor",
          "name": "",
          "type": "tuple"
        }
      ],
      "stateMutability": "view",
      "type": "function"
    },
    {
      "inputs": [
        {
          "internalType": "uint256",
          "name": "contractId",
          "type": "uint256"
        }
      ],
      "name": "getContract",
      "outputs": [
        {
          "components": [
            {
              "internalType": "uint256",
              "name": "contractId",
              "type": "uint256"
            },
            {
              "internalType": "string",
              "name": "description",
              "type": "string"
            },
            {
              "internalType": "uint256",
              "name": "bidDeadline",
              "type": "uint256"
            },
            {
              "internalType": "uint256",
              "name": "bidAmount",
              "type": "uint256"
            },
            {
              "internalType": "uint256",
              "name": "dailyPenaltyPerThousand",
              "type": "uint256"
            },
            {
              "internalType": "uint256",
              "name": "maxPenaltyPercent",
              "type": "uint256"
            },
            {
              "internalType": "address",
              "name": "awardedTo",
              "type": "address"
            },
            {
              "internalType": "enum Tender.ContractStatus",
              "name": "contractStatus",
              "type": "uint8"
            },
            {
              "internalType": "uint256[]",
              "name": "bidIds",
              "type": "uint256[]"
            },
            {
              "internalType": "bool",
              "name": "isPaid",
              "type": "bool"
            },
            {
              "internalType": "uint256",
              "name": "plannedDuration",
              "type": "uint256"
            },
            {
              "internalType": "uint256",
              "name": "workStarted",
              "type": "uint256"
            },
            {
              "internalType": "uint256",
              "name": "workCompleted",
              "type": "uint256"
            }
          ],
          "internalType": "struct Tender.Contract",
          "name": "",
          "type": "tuple"
        }
      ],
      "stateMutability": "view",
      "type": "function"
    },
    {
      "inputs": [
        {
          "internalType": "uint256",
          "name": "bidId",
          "type": "uint256"
        }
      ],
      "name": "getBid",
      "outputs": [
        {
          "components": [
            {
              "internalType": "uint256",
              "name": "bidId",
              "type": "uint256"
            },
            {
              "internalType": "address",
              "name": "contractor",
              "type": "address"
            },
            {
              "internalType": "uint256",
              "name": "amount",
              "type": "uint256"
            },
            {
              "internalType": "uint256",
              "name": "duration",
              "type": "uint256"
            },
            {
              "internalType": "uint256",
              "name": "contractId",
              "type": "uint256"
            },
            {
              "internalType": "enum Tender.BidStatus",
              "name": "bidStatus",
              "type": "uint8"
            }
          ],
          "internalType": "struct Tender.Bid",
          "name": "",
          "type": "tuple"
        }
      ],
      "stateMutability": "view",
      "type": "function"
    },
    {
      "inputs": [
        {
          "internalType": "uint256",
          "name": "contractId",
          "type": "uint256"
        }
      ],
      "name": "getBidsOfContract",
      "outputs": [
        {
          "internalType": "uint256[]",
          "name": "",
          "type": "uint256[]"
        }
      ],
      "stateMutability": "view",
      "type": "function"
    },
    {
      "inputs": [],
      "name": "getContractBalance",
      "outputs": [
        {
          "internalType": "uint256",
          "name": "",
          "type": "uint256"
        }
      ],
      "stateMutability": "view",
      "type": "function"
    },
    {
      "inputs": [
        {
          "internalType": "uint256",
          "name": "_bidId",
          "type": "uint256"
        },
        {
          "internalType": "uint256",
          "name": "_contractId",
          "type": "uint256"
        }
      ],
      "name": "isBidSubmittedToContract",
      "outputs": [
        {
          "internalType": "bool",
          "name": "",
          "type": "bool"
        }
      ],
      "stateMutability": "view",
      "type": "function"
    },
    {
      "inputs": [
        {
          "internalType": "uint256",
          "name": "_contractId",
          "type": "uint256"
        }
      ],
      "name": "isAlreadyBiddedByContractor",
      "outputs": [
        {
          "internalType": "bool",
          "name": "",
          "type": "bool"
        }
      ],
      "stateMutability": "view",
      "type": "function"
    }
  ],
  "bytecode": "0x608060405234801561000f575f80fd5b503360025f6101000a81548173ffffffffffffffffffffffffffffffffffffffff021916908373ffffffffffffffffffffffffffffffffffffffff160217905550615b98806200005e5f395ff3fe6080604052600436106101b6575f3560e01c80636f6e8df0116100eb5780638c67f63a11610089578063cab55e9011610063578063cab55e901461063c578063d0ce736014610664578063d595da981461068c578063e35569a6146106b4576101b6565b80638c67f63a146105ac5780638da5cb5b146105e8578063c3a2a93a14610612576101b6565b806382dae284116100c557806382dae284146104e25780638467f7cb1461051e5780638521934614610546578063893d20e814610582576101b6565b80636f6e8df0146104685780636f9fb98a146104905780637950ce91146104ba576101b6565b8063416f222a11610158578063474da79a11610132578063474da79a146103815780634bf3395b146103c857806356029cf2146103f05780636ebc8c861461042c576101b6565b8063416f222a146102f0578063432b8834146103185780634423c5f114610340576101b6565b8063280474501161019457806328047450146102265780633a9acd041461024e5780633c889e6f1461028a5780633dfe03b8146102c6576101b6565b80630eaaf4c8146101ba57806313af4035146101e257806314eb9a281461020a575b5f80fd5b3480156101c5575f80fd5b506101e060048036038101906101db9190613e96565b6106f1565b005b3480156101ed575f80fd5b5061020860048036038101906102039190613f1b565b610958565b005b610224600480360381019061021f9190613e96565b610a2a565b005b348015610231575f80fd5b5061024c60048036038101906102479190613e96565b610b2c565b005b348015610259575f80fd5b50610274600480360381019061026f9190613f1b565b610ce9565b6040516102819190614019565b60405180910390f35b348015610295575f80fd5b506102b060048036038101906102ab9190613e96565b610e24565b6040516102bd9190614134565b60405180910390f35b3480156102d1575f80fd5b506102da610f4d565b6040516102e7919061442d565b60405180910390f35b3480156102fb575f80fd5b506103166004803603810190610311919061444d565b6112d1565b005b348015610323575f80fd5b5061033e60048036038101906103399190613e96565b611543565b005b34801561034b575f80fd5b5061036660048036038101906103619190613e96565b611a46565b604051610378969594939291906144ca565b60405180910390f35b34801561038c575f80fd5b506103a760048036038101906103a29190613e96565b611aa9565b6040516103bf9c9b9a9998979695949392919061458f565b60405180910390f35b3480156103d3575f80fd5b506103ee60048036038101906103e991906146af565b611bc3565b005b3480156103fb575f80fd5b5061041660048036038101906104119190613e96565b611eeb565b6040516104239190614733565b60405180910390f35b348015610437575f80fd5b50610452600480360381019061044d9190613e96565b612042565b60405161045f9190614869565b60405180910390f35b348015610473575f80fd5b5061048e60048036038101906104899190614889565b612295565b005b34801561049b575f80fd5b506104a4612477565b6040516104b191906148d4565b60405180910390f35b3480156104c5575f80fd5b506104e060048036038101906104db9190613e96565b61247e565b005b3480156104ed575f80fd5b50610508600480360381019061050391906148ed565b6127b0565b6040516105159190614733565b60405180910390f35b348015610529575f80fd5b50610544600480360381019061053f9190613e96565b6128bf565b005b348015610551575f80fd5b5061056c60048036038101906105679190613e96565b612a14565b6040516105799190614997565b60405180910390f35b34801561058d575f80fd5b50610596612ac6565b6040516105a391906149b7565b60405180910390f35b3480156105b7575f80fd5b506105d260048036038101906105cd9190613e96565b612aee565b6040516105df91906148d4565b60405180910390f35b3480156105f3575f80fd5b506105fc612ca4565b60405161060991906149b7565b60405180910390f35b34801561061d575f80fd5b50610626612cc9565b604051610633919061442d565b60405180910390f35b348015610647575f80fd5b50610662600480360381019061065d9190613e96565b613380565b005b34801561066f575f80fd5b5061068a60048036038101906106859190613e96565b6134ed565b005b348015610697575f80fd5b506106b260048036038101906106ad9190613e96565b6136c3565b005b3480156106bf575f80fd5b506106da60048036038101906106d59190613f1b565b613830565b6040516106e89291906149d0565b60405180910390f35b6106fa336138f5565b610739576040517f08c379a000000000000000000000000000000000000000000000000000000000815260040161073090614a48565b60405180910390fd5b6107428161398b565b610781576040517f08c379a000000000000000000000000000000000000000000000000000000000815260040161077890614ab0565b60405180910390fd5b5f600381111561079457610793614048565b5b61079d826139aa565b60038111156107af576107ae614048565b5b146107ef576040517f08c379a00000000000000000000000000000000000000000000000000000000081526004016107e690614b3e565b60405180910390fd5b61080c60055f8381526020019081526020015f2060040154613a1b565b61084b576040517f08c379a000000000000000000000000000000000000000000000000000000000815260040161084290614bcc565b60405180910390fd5b3373ffffffffffffffffffffffffffffffffffffffff1660055f8381526020019081526020015f206001015f9054906101000a900473ffffffffffffffffffffffffffffffffffffffff1673ffffffffffffffffffffffffffffffffffffffff16146108ec576040517f08c379a00000000000000000000000000000000000000000000000000000000081526004016108e390614c34565b60405180910390fd5b600360055f8381526020019081526020015f206005015f6101000a81548160ff0219169083600381111561092357610922614048565b5b0217905550807f99319fa1a5fca42d549d4d49989116496775f906f62e0e2ff2ea3c3aacdefa2760405160405180910390a250565b60025f9054906101000a900473ffffffffffffffffffffffffffffffffffffffff1673ffffffffffffffffffffffffffffffffffffffff163373ffffffffffffffffffffffffffffffffffffffff16146109e7576040517f08c379a00000000000000000000000000000000000000000000000000000000081526004016109de90614cc2565b60405180910390fd5b8060025f6101000a81548173ffffffffffffffffffffffffffffffffffffffff021916908373ffffffffffffffffffffffffffffffffffffffff16021790555050565b60025f9054906101000a900473ffffffffffffffffffffffffffffffffffffffff1673ffffffffffffffffffffffffffffffffffffffff163373ffffffffffffffffffffffffffffffffffffffff1614610ab9576040517f08c379a0000000000000000000000000000000000000000000000000000000008152600401610ab090614cc2565b60405180910390fd5b60045f8281526020019081526020015f2060030154341015610b10576040517f08c379a0000000000000000000000000000000000000000000000000000000008152600401610b0790614d50565b60405180910390fd5b3460045f8381526020019081526020015f206003018190555050565b60025f9054906101000a900473ffffffffffffffffffffffffffffffffffffffff1673ffffffffffffffffffffffffffffffffffffffff163373ffffffffffffffffffffffffffffffffffffffff1614610bbb576040517f08c379a0000000000000000000000000000000000000000000000000000000008152600401610bb290614cc2565b60405180910390fd5b60036005811115610bcf57610bce614048565b5b610bd882613ab3565b6005811115610bea57610be9614048565b5b03610c2a576040517f08c379a0000000000000000000000000000000000000000000000000000000008152600401610c2190614dde565b60405180910390fd5b600360045f8381526020019081526020015f2060060160146101000a81548160ff02191690836005811115610c6257610c61614048565b5b02179055505f60045f8381526020019081526020015f206006015f6101000a81548173ffffffffffffffffffffffffffffffffffffffff021916908373ffffffffffffffffffffffffffffffffffffffff160217905550807fac741f39298ee393c5b4c9e9116c20e4ea7ad1c1d04770cdb296dcab16073db660405160405180910390a250565b610cf1613ce7565b60035f8373ffffffffffffffffffffffffffffffffffffffff1673ffffffffffffffffffffffffffffffffffffffff1681526020019081526020015f206040518060400160405290815f82015f9054906101000a900473ffffffffffffffffffffffffffffffffffffffff1673ffffffffffffffffffffffffffffffffffffffff1673ffffffffffffffffffffffffffffffffffffffff168152602001600182018054610d9d90614e29565b80601f0160208091040260200160405190810160405280929190818152602001828054610dc990614e29565b8015610e145780601f10610deb57610100808354040283529160200191610e14565b820191905f5260205f20905b815481529060010190602001808311610df757829003601f168201915b5050505050815250509050919050565b610e2c613d16565b610e358261398b565b610e74576040517f08c379a0000000000000000000000000000000000000000000000000000000008152600401610e6b90614ab0565b60405180910390fd5b60055f8381526020019081526020015f206040518060c00160405290815f8201548152602001600182015f9054906101000a900473ffffffffffffffffffffffffffffffffffffffff1673ffffffffffffffffffffffffffffffffffffffff1673ffffffffffffffffffffffffffffffffffffffff168152602001600282015481526020016003820154815260200160048201548152602001600582015f9054906101000a900460ff166003811115610f3057610f2f614048565b5b6003811115610f4257610f41614048565b5b815250509050919050565b60605f80610f5a5f613b25565b90505f600190505b818111610fd7575f6005811115610f7c57610f7b614048565b5b60045f8381526020019081526020015f2060060160149054906101000a900460ff166005811115610fb057610faf614048565b5b03610fc4578280610fc090614e86565b9350505b8080610fcf90614e86565b915050610f62565b505f8267ffffffffffffffff811115610ff357610ff2614ecd565b5b60405190808252806020026020018201604052801561102c57816020015b611019613d6e565b8152602001906001900390816110115790505b5090505f92505f600190505b8281116112c7575f600581111561105257611051614048565b5b60045f8381526020019081526020015f2060060160149054906101000a900460ff16600581111561108657611085614048565b5b036112b45760045f8281526020019081526020015f20604051806101a00160405290815f82015481526020016001820180546110c190614e29565b80601f01602080910402602001604051908101604052809291908181526020018280546110ed90614e29565b80156111385780601f1061110f57610100808354040283529160200191611138565b820191905f5260205f20905b81548152906001019060200180831161111b57829003601f168201915b5050505050815260200160028201548152602001600382015481526020016004820154815260200160058201548152602001600682015f9054906101000a900473ffffffffffffffffffffffffffffffffffffffff1673ffffffffffffffffffffffffffffffffffffffff1673ffffffffffffffffffffffffffffffffffffffff1681526020016006820160149054906101000a900460ff1660058111156111e3576111e2614048565b5b60058111156111f5576111f4614048565b5b81526020016007820180548060200260200160405190810160405280929190818152602001828054801561124657602002820191905f5260205f20905b815481526020019060010190808311611232575b50505050508152602001600882015f9054906101000a900460ff1615151515815260200160098201548152602001600a8201548152602001600b8201548152505082858151811061129a57611299614efa565b5b602002602001018190525083806112b090614e86565b9450505b80806112bf90614e86565b915050611038565b5080935050505090565b6112da81613b31565b611319576040517f08c379a000000000000000000000000000000000000000000000000000000000815260040161131090614f71565b60405180910390fd5b61132281613a1b565b611361576040517f08c379a000000000000000000000000000000000000000000000000000000000815260040161135890614fd9565b60405180910390fd5b61136a81611eeb565b156113aa576040517f08c379a00000000000000000000000000000000000000000000000000000000081526004016113a190615067565b60405180910390fd5b6113b46001613b50565b5f6113bf6001613b25565b90506040518060c001604052808281526020013373ffffffffffffffffffffffffffffffffffffffff1681526020018581526020018481526020018381526020015f600381111561141357611412614048565b5b81525060055f8381526020019081526020015f205f820151815f01556020820151816001015f6101000a81548173ffffffffffffffffffffffffffffffffffffffff021916908373ffffffffffffffffffffffffffffffffffffffff16021790555060408201518160020155606082015181600301556080820151816004015560a0820151816005015f6101000a81548160ff021916908360038111156114bd576114bc614048565b5b02179055509050505f60045f8481526020019081526020015f2090508060070182908060018154018082558091505060019003905f5260205f20015f909190919091505582827fcdc10c00e9cccd871fee68b6389bcebf0975335bb62412f2e9175083d00762948787604051611534929190615085565b60405180910390a35050505050565b60025f9054906101000a900473ffffffffffffffffffffffffffffffffffffffff1673ffffffffffffffffffffffffffffffffffffffff163373ffffffffffffffffffffffffffffffffffffffff16146115d2576040517f08c379a00000000000000000000000000000000000000000000000000000000081526004016115c990614cc2565b60405180910390fd5b6115db8161398b565b61161a576040517f08c379a0000000000000000000000000000000000000000000000000000000008152600401611611906150f6565b60405180910390fd5b5f60055f8381526020019081526020015f2060040154905061163b81613b31565b61167a576040517f08c379a00000000000000000000000000000000000000000000000000000000081526004016116719061515e565b60405180910390fd5b6001600581111561168e5761168d614048565b5b61169782613ab3565b60058111156116a9576116a8614048565b5b146116e9576040517f08c379a00000000000000000000000000000000000000000000000000000000081526004016116e0906151c6565b60405180910390fd5b5f60038111156116fc576116fb614048565b5b611705836139aa565b600381111561171757611716614048565b5b14611757576040517f08c379a000000000000000000000000000000000000000000000000000000000815260040161174e90615254565b60405180910390fd5b5f73ffffffffffffffffffffffffffffffffffffffff1660045f8381526020019081526020015f206006015f9054906101000a900473ffffffffffffffffffffffffffffffffffffffff1673ffffffffffffffffffffffffffffffffffffffff16146117f8576040517f08c379a00000000000000000000000000000000000000000000000000000000081526004016117ef906152e2565b60405180910390fd5b61180282826127b0565b611841576040517f08c379a000000000000000000000000000000000000000000000000000000000815260040161183890615370565b60405180910390fd5b600160055f8481526020019081526020015f206005015f6101000a81548160ff0219169083600381111561187857611877614048565b5b021790555060055f8381526020019081526020015f206001015f9054906101000a900473ffffffffffffffffffffffffffffffffffffffff1660045f8381526020019081526020015f206006015f6101000a81548173ffffffffffffffffffffffffffffffffffffffff021916908373ffffffffffffffffffffffffffffffffffffffff16021790555060055f8381526020019081526020015f206002015460045f8381526020019081526020015f206003018190555060055f8381526020019081526020015f206003015460045f8381526020019081526020015f2060090181905550600260045f8381526020019081526020015f2060060160146101000a81548160ff0219169083600581111561199457611993614048565b5b021790555060055f8381526020019081526020015f206001015f9054906101000a900473ffffffffffffffffffffffffffffffffffffffff1673ffffffffffffffffffffffffffffffffffffffff1660055f8481526020019081526020015f205f01547f0dd7baccaa891b93bde35f70885d05aef1b37a377363407a9349d957565b3b0360055f8681526020019081526020015f2060020154604051611a3a91906148d4565b60405180910390a35050565b6005602052805f5260405f205f91509050805f015490806001015f9054906101000a900473ffffffffffffffffffffffffffffffffffffffff1690806002015490806003015490806004015490806005015f9054906101000a900460ff16905086565b6004602052805f5260405f205f91509050805f015490806001018054611ace90614e29565b80601f0160208091040260200160405190810160405280929190818152602001828054611afa90614e29565b8015611b455780601f10611b1c57610100808354040283529160200191611b45565b820191905f5260205f20905b815481529060010190602001808311611b2857829003601f168201915b505050505090806002015490806003015490806004015490806005015490806006015f9054906101000a900473ffffffffffffffffffffffffffffffffffffffff16908060060160149054906101000a900460ff1690806008015f9054906101000a900460ff169080600901549080600a01549080600b015490508c565b60025f9054906101000a900473ffffffffffffffffffffffffffffffffffffffff1673ffffffffffffffffffffffffffffffffffffffff163373ffffffffffffffffffffffffffffffffffffffff1614611c52576040517f08c379a0000000000000000000000000000000000000000000000000000000008152600401611c4990614cc2565b60405180910390fd5b611c5b5f613b50565b5f611c655f613b25565b9050604051806101a0016040528082815260200187878080601f0160208091040260200160405190810160405280939291908181526020018383808284375f81840152601f19601f8201169050808301925050505050505081526020018581526020015f81526020018481526020018381526020015f73ffffffffffffffffffffffffffffffffffffffff1681526020015f6005811115611d0957611d08614048565b5b81526020015f67ffffffffffffffff811115611d2857611d27614ecd565b5b604051908082528060200260200182016040528015611d565781602001602082028036833780820191505090505b5081526020015f151581526020015f81526020015f81526020015f81525060045f8381526020019081526020015f205f820151815f01556020820151816001019081611da2919061552b565b5060408201518160020155606082015181600301556080820151816004015560a0820151816005015560c0820151816006015f6101000a81548173ffffffffffffffffffffffffffffffffffffffff021916908373ffffffffffffffffffffffffffffffffffffffff16021790555060e08201518160060160146101000a81548160ff02191690836005811115611e3c57611e3b614048565b5b0217905550610100820151816007019080519060200190611e5e929190613df5565b50610120820151816008015f6101000a81548160ff021916908315150217905550610140820151816009015561016082015181600a015561018082015181600b0155905050807fd89ecd7aaa8da2a25ba13412e220fed2879360d6a8eab2b63bc88d882f75881f8787878787604051611edb959493929190615634565b60405180910390a2505050505050565b5f611ef5336138f5565b611f34576040517f08c379a0000000000000000000000000000000000000000000000000000000008152600401611f2b90614a48565b60405180910390fd5b611f3d82613b31565b611f7c576040517f08c379a0000000000000000000000000000000000000000000000000000000008152600401611f7390614f71565b60405180910390fd5b5f611f8683612a14565b90505f5b8151811015612037575f828281518110611fa757611fa6614efa565b5b602002602001015190503373ffffffffffffffffffffffffffffffffffffffff1660055f8381526020019081526020015f206001015f9054906101000a900473ffffffffffffffffffffffffffffffffffffffff1673ffffffffffffffffffffffffffffffffffffffff1603612023576001935050505061203d565b50808061202f90614e86565b915050611f8a565b505f9150505b919050565b61204a613d6e565b61205382613b31565b612092576040517f08c379a000000000000000000000000000000000000000000000000000000000815260040161208990614f71565b60405180910390fd5b60045f8381526020019081526020015f20604051806101a00160405290815f82015481526020016001820180546120c890614e29565b80601f01602080910402602001604051908101604052809291908181526020018280546120f490614e29565b801561213f5780601f106121165761010080835404028352916020019161213f565b820191905f5260205f20905b81548152906001019060200180831161212257829003601f168201915b5050505050815260200160028201548152602001600382015481526020016004820154815260200160058201548152602001600682015f9054906101000a900473ffffffffffffffffffffffffffffffffffffffff1673ffffffffffffffffffffffffffffffffffffffff1673ffffffffffffffffffffffffffffffffffffffff1681526020016006820160149054906101000a900460ff1660058111156121ea576121e9614048565b5b60058111156121fc576121fb614048565b5b81526020016007820180548060200260200160405190810160405280929190818152602001828054801561224d57602002820191905f5260205f20905b815481526020019060010190808311612239575b50505050508152602001600882015f9054906101000a900460ff1615151515815260200160098201548152602001600a8201548152602001600b820154815250509050919050565b61229e336138f5565b156122de576040517f08c379a00000000000000000000000000000000000000000000000000000000081526004016122d5906156ca565b60405180910390fd5b60405180604001604052803373ffffffffffffffffffffffffffffffffffffffff16815260200183838080601f0160208091040260200160405190810160405280939291908181526020018383808284375f81840152601f19601f8201169050808301925050505050505081525060035f3373ffffffffffffffffffffffffffffffffffffffff1673ffffffffffffffffffffffffffffffffffffffff1681526020019081526020015f205f820151815f015f6101000a81548173ffffffffffffffffffffffffffffffffffffffff021916908373ffffffffffffffffffffffffffffffffffffffff16021790555060208201518160010190816123e2919061552b565b509050503373ffffffffffffffffffffffffffffffffffffffff167f3fca97b0a9a68341d82a7abfd38c3bb25ffa4e2f65c768140668f02290f3444360035f3373ffffffffffffffffffffffffffffffffffffffff1673ffffffffffffffffffffffffffffffffffffffff1681526020019081526020015f2060010160405161246b9190615769565b60405180910390a25050565b5f47905090565b60025f9054906101000a900473ffffffffffffffffffffffffffffffffffffffff1673ffffffffffffffffffffffffffffffffffffffff163373ffffffffffffffffffffffffffffffffffffffff161461250d576040517f08c379a000000000000000000000000000000000000000000000000000000000815260040161250490614cc2565b60405180910390fd5b61251681613b31565b612555576040517f08c379a000000000000000000000000000000000000000000000000000000000815260040161254c9061515e565b60405180910390fd5b60058081111561256857612567614048565b5b61257182613ab3565b600581111561258357612582614048565b5b146125c3576040517f08c379a00000000000000000000000000000000000000000000000000000000081526004016125ba906157f9565b60405180910390fd5b5f60045f8381526020019081526020015f2090505f1515816008015f9054906101000a900460ff1615151461262d576040517f08c379a000000000000000000000000000000000000000000000000000000000815260040161262490615861565b60405180910390fd5b612659816006015f9054906101000a900473ffffffffffffffffffffffffffffffffffffffff166138f5565b612698576040517f08c379a000000000000000000000000000000000000000000000000000000000815260040161268f90614a48565b60405180910390fd5b5f6126a283612aee565b9050806126ad612477565b10156126b7575f80fd5b816006015f9054906101000a900473ffffffffffffffffffffffffffffffffffffffff1673ffffffffffffffffffffffffffffffffffffffff166108fc8290811502906040515f60405180830381858888f1935050505015801561271d573d5f803e3d5ffd5b506001826008015f6101000a81548160ff021916908315150217905550816006015f9054906101000a900473ffffffffffffffffffffffffffffffffffffffff1673ffffffffffffffffffffffffffffffffffffffff167f60bbcfeb35cb1ab893df37e7a3b8a99efd65b5af5688cf7071eeefdb1624b957826040516127a391906148d4565b60405180910390a2505050565b5f6127ba8361398b565b6127f9576040517f08c379a00000000000000000000000000000000000000000000000000000000081526004016127f090614ab0565b60405180910390fd5b61280282613b31565b612841576040517f08c379a000000000000000000000000000000000000000000000000000000000815260040161283890614f71565b60405180910390fd5b5f5b60045f8481526020019081526020015f20600701805490508110156128b4578360045f8581526020019081526020015f20600701828154811061288957612888614efa565b5b905f5260205f200154036128a15760019150506128b9565b80806128ac90614e86565b915050612843565b505f90505b92915050565b60025f9054906101000a900473ffffffffffffffffffffffffffffffffffffffff1673ffffffffffffffffffffffffffffffffffffffff163373ffffffffffffffffffffffffffffffffffffffff161461294e576040517f08c379a000000000000000000000000000000000000000000000000000000000815260040161294590614cc2565b60405180910390fd5b61295781613b31565b612996576040517f08c379a000000000000000000000000000000000000000000000000000000000815260040161298d90614f71565b60405180910390fd5b6129a0815f613b64565b5f67ffffffffffffffff8111156129ba576129b9614ecd565b5b6040519080825280602002602001820160405280156129e85781602001602082028036833780820191505090505b5060045f8381526020019081526020015f206007019080519060200190612a10929190613df5565b5050565b6060612a1f82613b31565b612a5e576040517f08c379a0000000000000000000000000000000000000000000000000000000008152600401612a5590614f71565b60405180910390fd5b60045f8381526020019081526020015f20600701805480602002602001604051908101604052809291908181526020018280548015612aba57602002820191905f5260205f20905b815481526020019060010190808311612aa6575b50505050509050919050565b5f60025f9054906101000a900473ffffffffffffffffffffffffffffffffffffffff16905090565b5f612af882613b31565b612b37576040517f08c379a0000000000000000000000000000000000000000000000000000000008152600401612b2e90614f71565b60405180910390fd5b600580811115612b4a57612b49614048565b5b612b5383613ab3565b6005811115612b6557612b64614048565b5b14612ba5576040517f08c379a0000000000000000000000000000000000000000000000000000000008152600401612b9c906157f9565b60405180910390fd5b5f60045f8481526020019081526020015f2090505f6201518082600a015483600b0154612bd2919061587f565b612bdc91906158df565b90505f826009015482612bef919061587f565b90505f8111612c075782600301549350505050612c9f565b5f6103e88285600401548660030154612c20919061590f565b612c2a919061590f565b612c3491906158df565b9050606484600501548560030154612c4c919061590f565b612c5691906158df565b811115612c8857606484600501548560030154612c73919061590f565b612c7d91906158df565b945050505050612c9f565b808460030154612c98919061587f565b9450505050505b919050565b60025f9054906101000a900473ffffffffffffffffffffffffffffffffffffffff1681565b606060025f9054906101000a900473ffffffffffffffffffffffffffffffffffffffff1673ffffffffffffffffffffffffffffffffffffffff163373ffffffffffffffffffffffffffffffffffffffff1603612fd0575f612d295f613b25565b90505f8167ffffffffffffffff811115612d4657612d45614ecd565b5b604051908082528060200260200182016040528015612d7f57816020015b612d6c613d6e565b815260200190600190039081612d645790505b5090505f5b82811015612fc55760045f600183612d9c9190615950565b81526020019081526020015f20604051806101a00160405290815f8201548152602001600182018054612dce90614e29565b80601f0160208091040260200160405190810160405280929190818152602001828054612dfa90614e29565b8015612e455780601f10612e1c57610100808354040283529160200191612e45565b820191905f5260205f20905b815481529060010190602001808311612e2857829003601f168201915b5050505050815260200160028201548152602001600382015481526020016004820154815260200160058201548152602001600682015f9054906101000a900473ffffffffffffffffffffffffffffffffffffffff1673ffffffffffffffffffffffffffffffffffffffff1673ffffffffffffffffffffffffffffffffffffffff1681526020016006820160149054906101000a900460ff166005811115612ef057612eef614048565b5b6005811115612f0257612f01614048565b5b815260200160078201805480602002602001604051908101604052809291908181526020018280548015612f5357602002820191905f5260205f20905b815481526020019060010190808311612f3f575b50505050508152602001600882015f9054906101000a900460ff1615151515815260200160098201548152602001600a8201548152602001600b82015481525050828281518110612fa757612fa6614efa565b5b60200260200101819052508080612fbd90614e86565b915050612d84565b50809250505061337d565b5f80612fdb5f613b25565b90505f5b8181101561306f573373ffffffffffffffffffffffffffffffffffffffff1660045f8381526020019081526020015f206006015f9054906101000a900473ffffffffffffffffffffffffffffffffffffffff1673ffffffffffffffffffffffffffffffffffffffff160361305c57828061305890614e86565b9350505b808061306790614e86565b915050612fdf565b505f8267ffffffffffffffff81111561308b5761308a614ecd565b5b6040519080825280602002602001820160405280156130c457816020015b6130b1613d6e565b8152602001906001900390816130a95790505b5090505f805b83811015613374573373ffffffffffffffffffffffffffffffffffffffff1660045f8381526020019081526020015f206006015f9054906101000a900473ffffffffffffffffffffffffffffffffffffffff1673ffffffffffffffffffffffffffffffffffffffff16036133615760045f8281526020019081526020015f20604051806101a00160405290815f820154815260200160018201805461316e90614e29565b80601f016020809104026020016040519081016040528092919081815260200182805461319a90614e29565b80156131e55780601f106131bc576101008083540402835291602001916131e5565b820191905f5260205f20905b8154815290600101906020018083116131c857829003601f168201915b5050505050815260200160028201548152602001600382015481526020016004820154815260200160058201548152602001600682015f9054906101000a900473ffffffffffffffffffffffffffffffffffffffff1673ffffffffffffffffffffffffffffffffffffffff1673ffffffffffffffffffffffffffffffffffffffff1681526020016006820160149054906101000a900460ff1660058111156132905761328f614048565b5b60058111156132a2576132a1614048565b5b8152602001600782018054806020026020016040519081016040528092919081815260200182805480156132f357602002820191905f5260205f20905b8154815260200190600101908083116132df575b50505050508152602001600882015f9054906101000a900460ff1615151515815260200160098201548152602001600a8201548152602001600b8201548152505083838151811061334757613346614efa565b5b6020026020010181905250818061335d90614e86565b9250505b808061336c90614e86565b9150506130ca565b50819450505050505b90565b60025f9054906101000a900473ffffffffffffffffffffffffffffffffffffffff1673ffffffffffffffffffffffffffffffffffffffff163373ffffffffffffffffffffffffffffffffffffffff161461340f576040517f08c379a000000000000000000000000000000000000000000000000000000000815260040161340690614cc2565b60405180910390fd5b61341881613b31565b613457576040517f08c379a000000000000000000000000000000000000000000000000000000000815260040161344e90614f71565b60405180910390fd5b6002600581111561346b5761346a614048565b5b61347482613ab3565b600581111561348657613485614048565b5b146134c6576040517f08c379a00000000000000000000000000000000000000000000000000000000081526004016134bd906159cd565b60405180910390fd5b6134d1816004613b64565b4260045f8381526020019081526020015f20600a018190555050565b60025f9054906101000a900473ffffffffffffffffffffffffffffffffffffffff1673ffffffffffffffffffffffffffffffffffffffff163373ffffffffffffffffffffffffffffffffffffffff161461357c576040517f08c379a000000000000000000000000000000000000000000000000000000000815260040161357390614cc2565b60405180910390fd5b61358581613b31565b6135c4576040517f08c379a00000000000000000000000000000000000000000000000000000000081526004016135bb90614f71565b60405180910390fd5b5f60058111156135d7576135d6614048565b5b6135e082613ab3565b60058111156135f2576135f1614048565b5b14613632576040517f08c379a000000000000000000000000000000000000000000000000000000000815260040161362990615a35565b60405180910390fd5b60045f8281526020019081526020015f20600201544211613688576040517f08c379a000000000000000000000000000000000000000000000000000000000815260040161367f90615a9d565b60405180910390fd5b613693816001613b64565b807fd79ef0d7f68df3d827e7c4b6a13ec4570e9a30515c4717bbaa647da58ca68be160405160405180910390a250565b60025f9054906101000a900473ffffffffffffffffffffffffffffffffffffffff1673ffffffffffffffffffffffffffffffffffffffff163373ffffffffffffffffffffffffffffffffffffffff1614613752576040517f08c379a000000000000000000000000000000000000000000000000000000000815260040161374990614cc2565b60405180910390fd5b61375b81613b31565b61379a576040517f08c379a000000000000000000000000000000000000000000000000000000000815260040161379190614f71565b60405180910390fd5b600460058111156137ae576137ad614048565b5b6137b782613ab3565b60058111156137c9576137c8614048565b5b14613809576040517f08c379a000000000000000000000000000000000000000000000000000000000815260040161380090615b2b565b60405180910390fd5b613814816005613b64565b4260045f8381526020019081526020015f20600b018190555050565b6003602052805f5260405f205f91509050805f015f9054906101000a900473ffffffffffffffffffffffffffffffffffffffff169080600101805461387490614e29565b80601f01602080910402602001604051908101604052809291908181526020018280546138a090614e29565b80156138eb5780601f106138c2576101008083540402835291602001916138eb565b820191905f5260205f20905b8154815290600101906020018083116138ce57829003601f168201915b5050505050905082565b5f8073ffffffffffffffffffffffffffffffffffffffff1660035f8473ffffffffffffffffffffffffffffffffffffffff1673ffffffffffffffffffffffffffffffffffffffff1681526020019081526020015f205f015f9054906101000a900473ffffffffffffffffffffffffffffffffffffffff1673ffffffffffffffffffffffffffffffffffffffff1614159050919050565b5f8060055f8481526020019081526020015f205f015414159050919050565b5f6139b48261398b565b6139f3576040517f08c379a00000000000000000000000000000000000000000000000000000000081526004016139ea90614ab0565b60405180910390fd5b60055f8381526020019081526020015f206005015f9054906101000a900460ff169050919050565b5f613a2582613b31565b613a64576040517f08c379a0000000000000000000000000000000000000000000000000000000008152600401613a5b90614f71565b60405180910390fd5b5f6005811115613a7757613a76614048565b5b60045f8481526020019081526020015f2060060160149054906101000a900460ff166005811115613aab57613aaa614048565b5b149050919050565b5f613abd82613b31565b613afc576040517f08c379a0000000000000000000000000000000000000000000000000000000008152600401613af390614f71565b60405180910390fd5b60045f8381526020019081526020015f2060060160149054906101000a900460ff169050919050565b5f815f01549050919050565b5f8060045f8481526020019081526020015f205f015414159050919050565b6001815f015f828254019250508190555050565b60025f9054906101000a900473ffffffffffffffffffffffffffffffffffffffff1673ffffffffffffffffffffffffffffffffffffffff163373ffffffffffffffffffffffffffffffffffffffff1614613bf3576040517f08c379a0000000000000000000000000000000000000000000000000000000008152600401613bea90614cc2565b60405180910390fd5b613bfc82613b31565b613c3b576040517f08c379a0000000000000000000000000000000000000000000000000000000008152600401613c3290614f71565b60405180910390fd5b8060045f8481526020019081526020015f2060060160146101000a81548160ff02191690836005811115613c7257613c71614048565b5b021790555060045f8381526020019081526020015f205f01547fdcba20243cece5ee0f3fd42c582f8201538d034183adfefbc2e6bf21de8fd37660045f8581526020019081526020015f2060060160149054906101000a900460ff16604051613cdb9190615b49565b60405180910390a25050565b60405180604001604052805f73ffffffffffffffffffffffffffffffffffffffff168152602001606081525090565b6040518060c001604052805f81526020015f73ffffffffffffffffffffffffffffffffffffffff1681526020015f81526020015f81526020015f81526020015f6003811115613d6857613d67614048565b5b81525090565b604051806101a001604052805f8152602001606081526020015f81526020015f81526020015f81526020015f81526020015f73ffffffffffffffffffffffffffffffffffffffff1681526020015f6005811115613dce57613dcd614048565b5b8152602001606081526020015f151581526020015f81526020015f81526020015f81525090565b828054828255905f5260205f20908101928215613e2f579160200282015b82811115613e2e578251825591602001919060010190613e13565b5b509050613e3c9190613e40565b5090565b5b80821115613e57575f815f905550600101613e41565b5090565b5f80fd5b5f80fd5b5f819050919050565b613e7581613e63565b8114613e7f575f80fd5b50565b5f81359050613e9081613e6c565b92915050565b5f60208284031215613eab57613eaa613e5b565b5b5f613eb884828501613e82565b91505092915050565b5f73ffffffffffffffffffffffffffffffffffffffff82169050919050565b5f613eea82613ec1565b9050919050565b613efa81613ee0565b8114613f04575f80fd5b50565b5f81359050613f1581613ef1565b92915050565b5f60208284031215613f3057613f2f613e5b565b5b5f613f3d84828501613f07565b91505092915050565b613f4f81613ee0565b82525050565b5f81519050919050565b5f82825260208201905092915050565b5f5b83811015613f8c578082015181840152602081019050613f71565b5f8484015250505050565b5f601f19601f8301169050919050565b5f613fb182613f55565b613fbb8185613f5f565b9350613fcb818560208601613f6f565b613fd481613f97565b840191505092915050565b5f604083015f830151613ff45f860182613f46565b506020830151848203602086015261400c8282613fa7565b9150508091505092915050565b5f6020820190508181035f8301526140318184613fdf565b905092915050565b61404281613e63565b82525050565b7f4e487b71000000000000000000000000000000000000000000000000000000005f52602160045260245ffd5b6004811061408657614085614048565b5b50565b5f81905061409682614075565b919050565b5f6140a582614089565b9050919050565b6140b58161409b565b82525050565b60c082015f8201516140cf5f850182614039565b5060208201516140e26020850182613f46565b5060408201516140f56040850182614039565b5060608201516141086060850182614039565b50608082015161411b6080850182614039565b5060a082015161412e60a08501826140ac565b50505050565b5f60c0820190506141475f8301846140bb565b92915050565b5f81519050919050565b5f82825260208201905092915050565b5f819050602082019050919050565b6006811061418757614186614048565b5b50565b5f81905061419782614176565b919050565b5f6141a68261418a565b9050919050565b6141b68161419c565b82525050565b5f81519050919050565b5f82825260208201905092915050565b5f819050602082019050919050565b5f6141f08383614039565b60208301905092915050565b5f602082019050919050565b5f614212826141bc565b61421c81856141c6565b9350614227836141d6565b805f5b8381101561425757815161423e88826141e5565b9750614249836141fc565b92505060018101905061422a565b5085935050505092915050565b5f8115159050919050565b61427881614264565b82525050565b5f6101a083015f8301516142945f860182614039565b50602083015184820360208601526142ac8282613fa7565b91505060408301516142c16040860182614039565b5060608301516142d46060860182614039565b5060808301516142e76080860182614039565b5060a08301516142fa60a0860182614039565b5060c083015161430d60c0860182613f46565b5060e083015161432060e08601826141ad565b5061010083015184820361010086015261433a8282614208565b91505061012083015161435161012086018261426f565b50610140830151614366610140860182614039565b5061016083015161437b610160860182614039565b50610180830151614390610180860182614039565b508091505092915050565b5f6143a6838361427e565b905092915050565b5f602082019050919050565b5f6143c48261414d565b6143ce8185614157565b9350836020820285016143e085614167565b805f5b8581101561441b57848403895281516143fc858261439b565b9450614407836143ae565b925060208a019950506001810190506143e3565b50829750879550505050505092915050565b5f6020820190508181035f83015261444581846143ba565b905092915050565b5f805f6060848603121561446457614463613e5b565b5b5f61447186828701613e82565b935050602061448286828701613e82565b925050604061449386828701613e82565b9150509250925092565b6144a681613e63565b82525050565b6144b581613ee0565b82525050565b6144c48161409b565b82525050565b5f60c0820190506144dd5f83018961449d565b6144ea60208301886144ac565b6144f7604083018761449d565b614504606083018661449d565b614511608083018561449d565b61451e60a08301846144bb565b979650505050505050565b5f82825260208201905092915050565b5f61454382613f55565b61454d8185614529565b935061455d818560208601613f6f565b61456681613f97565b840191505092915050565b61457a8161419c565b82525050565b61458981614264565b82525050565b5f610180820190506145a35f83018f61449d565b81810360208301526145b5818e614539565b90506145c4604083018d61449d565b6145d1606083018c61449d565b6145de608083018b61449d565b6145eb60a083018a61449d565b6145f860c08301896144ac565b61460560e0830188614571565b614613610100830187614580565b61462161012083018661449d565b61462f61014083018561449d565b61463d61016083018461449d565b9d9c50505050505050505050505050565b5f80fd5b5f80fd5b5f80fd5b5f8083601f84011261466f5761466e61464e565b5b8235905067ffffffffffffffff81111561468c5761468b614652565b5b6020830191508360018202830111156146a8576146a7614656565b5b9250929050565b5f805f805f608086880312156146c8576146c7613e5b565b5b5f86013567ffffffffffffffff8111156146e5576146e4613e5f565b5b6146f18882890161465a565b9550955050602061470488828901613e82565b935050604061471588828901613e82565b925050606061472688828901613e82565b9150509295509295909350565b5f6020820190506147465f830184614580565b92915050565b5f6101a083015f8301516147625f860182614039565b506020830151848203602086015261477a8282613fa7565b915050604083015161478f6040860182614039565b5060608301516147a26060860182614039565b5060808301516147b56080860182614039565b5060a08301516147c860a0860182614039565b5060c08301516147db60c0860182613f46565b5060e08301516147ee60e08601826141ad565b506101008301518482036101008601526148088282614208565b91505061012083015161481f61012086018261426f565b50610140830151614834610140860182614039565b50610160830151614849610160860182614039565b5061018083015161485e610180860182614039565b508091505092915050565b5f6020820190508181035f830152614881818461474c565b905092915050565b5f806020838503121561489f5761489e613e5b565b5b5f83013567ffffffffffffffff8111156148bc576148bb613e5f565b5b6148c88582860161465a565b92509250509250929050565b5f6020820190506148e75f83018461449d565b92915050565b5f806040838503121561490357614902613e5b565b5b5f61491085828601613e82565b925050602061492185828601613e82565b9150509250929050565b5f82825260208201905092915050565b5f614945826141bc565b61494f818561492b565b935061495a836141d6565b805f5b8381101561498a57815161497188826141e5565b975061497c836141fc565b92505060018101905061495d565b5085935050505092915050565b5f6020820190508181035f8301526149af818461493b565b905092915050565b5f6020820190506149ca5f8301846144ac565b92915050565b5f6040820190506149e35f8301856144ac565b81810360208301526149f58184614539565b90509392505050565b7f436f6e74726163746f7220646f6573206e6f742065786973742e0000000000005f82015250565b5f614a32601a83614529565b9150614a3d826149fe565b602082019050919050565b5f6020820190508181035f830152614a5f81614a26565b9050919050565b7f42696420646f6573206e6f742065786973742e000000000000000000000000005f82015250565b5f614a9a601383614529565b9150614aa582614a66565b602082019050919050565b5f6020820190508181035f830152614ac781614a8e565b9050919050565b7f4f6e6c79207375626d697474656420626964732063616e2062652077697468645f8201527f7261776e00000000000000000000000000000000000000000000000000000000602082015250565b5f614b28602483614529565b9150614b3382614ace565b604082019050919050565b5f6020820190508181035f830152614b5581614b1c565b9050919050565b7f596f752063616e206f6e6c7920776974686472617720626964732066726f6d205f8201527f6f70656e20636f6e7472616374732e0000000000000000000000000000000000602082015250565b5f614bb6602f83614529565b9150614bc182614b5c565b604082019050919050565b5f6020820190508181035f830152614be381614baa565b9050919050565b7f4f6e6c79206269646465722063616e20776974686472617720746865206269645f82015250565b5f614c1e602083614529565b9150614c2982614bea565b602082019050919050565b5f6020820190508181035f830152614c4b81614c12565b9050919050565b7f4f6e6c7920746865206f776e65722063616e2063616c6c20746869732066756e5f8201527f6374696f6e2e0000000000000000000000000000000000000000000000000000602082015250565b5f614cac602683614529565b9150614cb782614c52565b604082019050919050565b5f6020820190508181035f830152614cd981614ca0565b9050919050565b7f416d6f756e74206d75737420626520657175616c20746f206f722067726561745f8201527f6572207468616e20626964416d6f756e742e0000000000000000000000000000602082015250565b5f614d3a603283614529565b9150614d4582614ce0565b604082019050919050565b5f6020820190508181035f830152614d6781614d2e565b9050919050565b7f436f6e74726163742068617320616c7265616479206265656e2063616e63656c5f8201527f65642e0000000000000000000000000000000000000000000000000000000000602082015250565b5f614dc8602383614529565b9150614dd382614d6e565b604082019050919050565b5f6020820190508181035f830152614df581614dbc565b9050919050565b7f4e487b71000000000000000000000000000000000000000000000000000000005f52602260045260245ffd5b5f6002820490506001821680614e4057607f821691505b602082108103614e5357614e52614dfc565b5b50919050565b7f4e487b71000000000000000000000000000000000000000000000000000000005f52601160045260245ffd5b5f614e9082613e63565b91507fffffffffffffffffffffffffffffffffffffffffffffffffffffffffffffffff8203614ec257614ec1614e59565b5b600182019050919050565b7f4e487b71000000000000000000000000000000000000000000000000000000005f52604160045260245ffd5b7f4e487b71000000000000000000000000000000000000000000000000000000005f52603260045260245ffd5b7f436f6e747261637420646f6573206e6f742065786973742e00000000000000005f82015250565b5f614f5b601883614529565b9150614f6682614f27565b602082019050919050565b5f6020820190508181035f830152614f8881614f4f565b9050919050565b7f436f6e7472616374206973206e6f74206f70656e2e00000000000000000000005f82015250565b5f614fc3601583614529565b9150614fce82614f8f565b602082019050919050565b5f6020820190508181035f830152614ff081614fb7565b9050919050565b7f4f6e6c79206f6e65206269642063616e206265207375626d697474656420746f5f8201527f206120636f6e74726163742062792073616d6520636f6e74726163746f722e00602082015250565b5f615051603f83614529565b915061505c82614ff7565b604082019050919050565b5f6020820190508181035f83015261507e81615045565b9050919050565b5f6040820190506150985f83018561449d565b6150a5602083018461449d565b9392505050565b7f42696420646f6573206e6f7420657869737400000000000000000000000000005f82015250565b5f6150e0601283614529565b91506150eb826150ac565b602082019050919050565b5f6020820190508181035f83015261510d816150d4565b9050919050565b7f436f6e747261637420646f6573206e6f742065786973740000000000000000005f82015250565b5f615148601783614529565b915061515382615114565b602082019050919050565b5f6020820190508181035f8301526151758161513c565b9050919050565b7f436f6e7472616374206973206e6f7420636c6f7365642e0000000000000000005f82015250565b5f6151b0601783614529565b91506151bb8261517c565b602082019050919050565b5f6020820190508181035f8301526151dd816151a4565b9050919050565b7f4f6e6c79207375626d697474656420626964732063616e2062652061776172645f8201527f65642e0000000000000000000000000000000000000000000000000000000000602082015250565b5f61523e602383614529565b9150615249826151e4565b604082019050919050565b5f6020820190508181035f83015261526b81615232565b9050919050565b7f436f6e74726163742068617320616c7265616479206265656e206177617264655f8201527f642e000000000000000000000000000000000000000000000000000000000000602082015250565b5f6152cc602283614529565b91506152d782615272565b604082019050919050565b5f6020820190508181035f8301526152f9816152c0565b9050919050565b7f426964206973206e6f74207375626d697474656420746f207468697320636f6e5f8201527f74726163742e0000000000000000000000000000000000000000000000000000602082015250565b5f61535a602683614529565b915061536582615300565b604082019050919050565b5f6020820190508181035f8301526153878161534e565b9050919050565b5f819050815f5260205f209050919050565b5f6020601f8301049050919050565b5f82821b905092915050565b5f600883026153ea7fffffffffffffffffffffffffffffffffffffffffffffffffffffffffffffffff826153af565b6153f486836153af565b95508019841693508086168417925050509392505050565b5f819050919050565b5f61542f61542a61542584613e63565b61540c565b613e63565b9050919050565b5f819050919050565b61544883615415565b61545c61545482615436565b8484546153bb565b825550505050565b5f90565b615470615464565b61547b81848461543f565b505050565b5b8181101561549e576154935f82615468565b600181019050615481565b5050565b601f8211156154e3576154b48161538e565b6154bd846153a0565b810160208510156154cc578190505b6154e06154d8856153a0565b830182615480565b50505b505050565b5f82821c905092915050565b5f6155035f19846008026154e8565b1980831691505092915050565b5f61551b83836154f4565b9150826002028217905092915050565b61553482613f55565b67ffffffffffffffff81111561554d5761554c614ecd565b5b6155578254614e29565b6155628282856154a2565b5f60209050601f831160018114615593575f8415615581578287015190505b61558b8582615510565b8655506155f2565b601f1984166155a18661538e565b5f5b828110156155c8578489015182556001820191506020850194506020810190506155a3565b868310156155e557848901516155e1601f8916826154f4565b8355505b6001600288020188555050505b505050505050565b828183375f83830152505050565b5f6156138385614529565b93506156208385846155fa565b61562983613f97565b840190509392505050565b5f6080820190508181035f83015261564d818789615608565b905061565c602083018661449d565b615669604083018561449d565b615676606083018461449d565b9695505050505050565b7f436f6e74726163746f7220616c7265616479206578697374732e0000000000005f82015250565b5f6156b4601a83614529565b91506156bf82615680565b602082019050919050565b5f6020820190508181035f8301526156e1816156a8565b9050919050565b5f81546156f481614e29565b6156fe8186614529565b9450600182165f8114615718576001811461572e57615760565b60ff198316865281151560200286019350615760565b6157378561538e565b5f5b8381101561575857815481890152600182019150602081019050615739565b808801955050505b50505092915050565b5f6020820190508181035f83015261578181846156e8565b905092915050565b7f436f6e7472616374206973206e6f74206d61726b656420617320576f726b436f5f8201527f6d706c657465642e000000000000000000000000000000000000000000000000602082015250565b5f6157e3602883614529565b91506157ee82615789565b604082019050919050565b5f6020820190508181035f830152615810816157d7565b9050919050565b7f436f6e74726163746f7220697320616c726561647920706169642e00000000005f82015250565b5f61584b601b83614529565b915061585682615817565b602082019050919050565b5f6020820190508181035f8301526158788161583f565b9050919050565b5f61588982613e63565b915061589483613e63565b92508282039050818111156158ac576158ab614e59565b5b92915050565b7f4e487b71000000000000000000000000000000000000000000000000000000005f52601260045260245ffd5b5f6158e982613e63565b91506158f483613e63565b925082615904576159036158b2565b5b828204905092915050565b5f61591982613e63565b915061592483613e63565b925082820261593281613e63565b9150828204841483151761594957615948614e59565b5b5092915050565b5f61595a82613e63565b915061596583613e63565b925082820190508082111561597d5761597c614e59565b5b92915050565b7f436f6e7472616374206973206e6f7420617761726465642e00000000000000005f82015250565b5f6159b7601883614529565b91506159c282615983565b602082019050919050565b5f6020820190508181035f8301526159e4816159ab565b9050919050565b7f436f6e7472616374206973206e6f74206f70656e20666f7220626964732e00005f82015250565b5f615a1f601e83614529565b9150615a2a826159eb565b602082019050919050565b5f6020820190508181035f830152615a4c81615a13565b9050919050565b7f42696420646561646c696e6520686173206e6f7420706173736564207965742e5f82015250565b5f615a87602083614529565b9150615a9282615a53565b602082019050919050565b5f6020820190508181035f830152615ab481615a7b565b9050919050565b7f436f6e7472616374206973206e6f74206d61726b656420617320496e50726f675f8201527f726573732e000000000000000000000000000000000000000000000000000000602082015250565b5f615b15602583614529565b9150615b2082615abb565b604082019050919050565b5f6020820190508181035f830152615b4281615b09565b9050919050565b5f602082019050615b5c5f830184614571565b9291505056fea2646970667358221220d54cdf38cd1baa7386433bd618fc07bf34d8e69c7323ef6f9addecbf992b2dfd64736f6c63430008140033",
  "immutableReferences": {},
  "source": "// SPDX-License-Identifier: MIT\npragma solidity 0.8.20;\n\nimport \"@openzeppelin/contracts/utils/Counters.sol\";\nimport \"@openzeppelin/contracts/utils/math/SafeMath.sol\";\n\ncontract Tender {\n    using Counters for Counters.Counter;\n    Counters.Counter private _contractCounter;\n    Counters.Counter private _bidCounter;\n\n    address public owner;\n\n    struct Contractor {\n        address contractor;\n        string name;\n    }\n\n    struct Contract {\n        uint contractId;\n        string description;\n        uint bidDeadline;\n        uint bidAmount;\n        uint dailyPenaltyPerThousand;\n        uint maxPenaltyPercent;\n        address awardedTo;\n        ContractStatus contractStatus;\n        uint[] bidIds;\n        bool isPaid;\n        uint plannedDuration;\n        uint workStarted;\n        uint workCompleted;\n    }\n\n    enum ContractStatus {\n        Open,\n        Closed,\n        Awarded,\n        Canceled,\n        WorkInProgress,\n        WorkCompleted\n    }\n\n    struct Bid {\n        uint bidId;\n        address contractor;\n        uint amount;\n        uint duration;\n        uint contractId;\n        BidStatus bidStatus;\n    }\n\n    enum BidStatus {\n        Submitted,\n        Awarded,\n        Rejected,\n        Withdrawn\n    }\n\n    mapping(address => Contractor) public contractors;\n    mapping(uint => Contract) public contracts;\n    mapping(uint => Bid) public bids;\n\n    modifier onlyOwner() {\n        require(msg.sender == owner, \"Only the owner can call this function.\");\n        _;\n    }\n\n    function setOwner(address _newOwner) external onlyOwner {\n        owner = _newOwner;\n    }\n\n    constructor() {\n        owner = msg.sender;\n    }\n\n    event ContractorAdded(address indexed contractor, string name);\n    event ContractCreated(\n        uint indexed contractId,\n        string description,\n        uint bidDeadline,\n        uint dailyPenaltyPerThousand,\n        uint maxPenaltyPercent\n    );\n    event ContractCanceled(uint indexed contractId);\n    event ContractClosed(uint indexed contractId);\n    event ContractStatusChanged(\n        uint indexed contractId,\n        ContractStatus contractStatus\n    );\n    event BidCreated(\n        uint indexed bidId,\n        uint amount,\n        uint duration,\n        uint indexed contractId\n    );\n    event BidSubmitted(\n        uint indexed bidId,\n        uint indexed contractId,\n        uint amount,\n        uint duration\n    );\n    event BidWithdrawn(uint indexed bidId);\n    event BidAwarded(\n        uint indexed bidId,\n        address indexed contractor,\n        uint bidAmount\n    );\n    event BidderPaid(address indexed contractor, uint paymentAmount);\n\n    function addContractor(string calldata name) external {\n        require(!isContractor(msg.sender), \"Contractor already exists.\");\n        contractors[msg.sender] = Contractor(msg.sender, name);\n\n        emit ContractorAdded(msg.sender, contractors[msg.sender].name);\n    }\n\n    function createContract(\n        string calldata description,\n        uint bidDeadline,\n        uint dailyPenaltyPerThousand,\n        uint maxPenaltyPercent\n    ) external onlyOwner {\n        _contractCounter.increment();\n        uint256 contractId = _contractCounter.current();\n\n        contracts[contractId] = Contract(\n            contractId,\n            description,\n            bidDeadline,\n            0,\n            dailyPenaltyPerThousand,\n            maxPenaltyPercent,\n            address(0),\n            ContractStatus.Open,\n            new uint[](0),\n            false,\n            0,\n            0,\n            0\n        );\n        emit ContractCreated(\n            contractId,\n            description,\n            bidDeadline,\n            dailyPenaltyPerThousand,\n            maxPenaltyPercent\n        );\n    }\n\n    function cancelContract(uint contractId) public onlyOwner {\n        require(\n            getContractStatus(contractId) != ContractStatus.Canceled,\n            \"Contract has already been canceled.\"\n        );\n\n        contracts[contractId].contractStatus = ContractStatus.Canceled;\n        contracts[contractId].awardedTo = address(0);\n\n        emit ContractCanceled(contractId);\n    }\n\n    function closeContract(uint contractId) public onlyOwner {\n        require(isContract(contractId), \"Contract does not exist.\");\n        require(\n            getContractStatus(contractId) == ContractStatus.Open,\n            \"Contract is not open for bids.\"\n        );\n        require(\n            block.timestamp > contracts[contractId].bidDeadline,\n            \"Bid deadline has not passed yet.\"\n        );\n\n        changeContractStatus(contractId, ContractStatus.Closed);\n\n        emit ContractClosed(contractId);\n    }\n\n    function submitBid(uint amount, uint duration, uint contractId) external {\n        require(isContract(contractId), \"Contract does not exist.\");\n        require(isContractOpen(contractId), \"Contract is not open.\");\n        require(\n            !isAlreadyBiddedByContractor(contractId),\n            \"Only one bid can be submitted to a contract by same contractor.\"\n        );\n\n        _bidCounter.increment();\n        uint bidId = _bidCounter.current();\n        bids[bidId] = Bid(\n            bidId,\n            msg.sender,\n            amount,\n            duration,\n            contractId,\n            BidStatus.Submitted\n        );\n\n        Contract storage payingContract = contracts[contractId];\n        payingContract.bidIds.push(bidId);\n\n        emit BidSubmitted(bidId, contractId, amount, duration);\n    }\n\n    function withdrawBid(uint bidId) external {\n        require(isContractor(msg.sender), \"Contractor does not exist.\");\n        require(isBid(bidId), \"Bid does not exist.\");\n        require(\n            getBidStatus(bidId) == BidStatus.Submitted,\n            \"Only submitted bids can be withdrawn\"\n        );\n        require(\n            isContractOpen(bids[bidId].contractId),\n            \"You can only withdraw bids from open contracts.\"\n        );\n        require(\n            bids[bidId].contractor == msg.sender,\n            \"Only bidder can withdraw the bid\"\n        );\n\n        bids[bidId].bidStatus = BidStatus.Withdrawn;\n\n        emit BidWithdrawn(bidId);\n    }\n\n    function awardBid(uint bidId) external onlyOwner {\n        require(isBid(bidId), \"Bid does not exist\");\n        uint contractId = bids[bidId].contractId;\n        require(isContract(contractId), \"Contract does not exist\");\n        require(\n            getContractStatus(contractId) == ContractStatus.Closed,\n            \"Contract is not closed.\"\n        );\n        require(\n            getBidStatus(bidId) == BidStatus.Submitted,\n            \"Only submitted bids can be awarded.\"\n        );\n        require(\n            contracts[contractId].awardedTo == address(0),\n            \"Contract has already been awarded.\"\n        );\n        require(\n            isBidSubmittedToContract(bidId, contractId),\n            \"Bid is not submitted to this contract.\"\n        );\n\n        bids[bidId].bidStatus = BidStatus.Awarded;\n        contracts[contractId].awardedTo = bids[bidId].contractor;\n        contracts[contractId].bidAmount = bids[bidId].amount;\n        contracts[contractId].plannedDuration = bids[bidId].duration;\n        contracts[contractId].contractStatus = ContractStatus.Awarded;\n\n        emit BidAwarded(\n            bids[bidId].bidId,\n            bids[bidId].contractor,\n            bids[bidId].amount\n        );\n    }\n\n    function depositContractAmount(uint contractId) public payable onlyOwner {\n        require(\n            msg.value >= contracts[contractId].bidAmount,\n            \"Amount must be equal to or greater than bidAmount.\"\n        );\n        contracts[contractId].bidAmount = msg.value;\n    }\n\n    function startWorkInContract(uint contractId) external onlyOwner {\n        require(isContract(contractId), \"Contract does not exist.\");\n        require(\n            getContractStatus(contractId) == ContractStatus.Awarded,\n            \"Contract is not awarded.\"\n        );\n\n        changeContractStatus(contractId, ContractStatus.WorkInProgress);\n        contracts[contractId].workStarted = block.timestamp;\n    }\n\n    function completeWorkInContract(uint contractId) external onlyOwner {\n        require(isContract(contractId), \"Contract does not exist.\");\n        require(\n            getContractStatus(contractId) == ContractStatus.WorkInProgress,\n            \"Contract is not marked as InProgress.\"\n        );\n\n        changeContractStatus(contractId, ContractStatus.WorkCompleted);\n        contracts[contractId].workCompleted = block.timestamp;\n    }\n\n    function payAwardedBid(uint contractId) external onlyOwner {\n        require(isContract(contractId), \"Contract does not exist\");\n        require(\n            getContractStatus(contractId) == ContractStatus.WorkCompleted,\n            \"Contract is not marked as WorkCompleted.\"\n        );\n\n        Contract storage payingContract = contracts[contractId];\n        require(payingContract.isPaid == false, \"Contractor is already paid.\");\n        require(\n            isContractor(payingContract.awardedTo),\n            \"Contractor does not exist.\"\n        );\n\n        uint paymentAmount = calculatePayment(contractId);\n        require(getContractBalance() >= paymentAmount);\n        payable(payingContract.awardedTo).transfer(paymentAmount);\n        payingContract.isPaid = true;\n\n        emit BidderPaid(payingContract.awardedTo, paymentAmount);\n    }\n\n    function calculatePayment(uint contractId) public view returns (uint) {\n        require(isContract(contractId), \"Contract does not exist.\");\n        require(\n            getContractStatus(contractId) == ContractStatus.WorkCompleted,\n            \"Contract is not marked as WorkCompleted.\"\n        );\n        Contract storage payingContract = contracts[contractId];\n\n        uint workedDuration = (payingContract.workCompleted -\n            payingContract.workStarted) / 86400;\n\n        uint daysPassed = workedDuration - payingContract.plannedDuration;\n\n        if (daysPassed <= 0) {\n            return payingContract.bidAmount;\n        }\n\n        uint penaltyAmount = (payingContract.bidAmount *\n            payingContract.dailyPenaltyPerThousand *\n            daysPassed) / 1000;\n\n        if (\n            penaltyAmount >\n            (payingContract.bidAmount * payingContract.maxPenaltyPercent) / 100\n        ) {\n            return\n                (payingContract.bidAmount * payingContract.maxPenaltyPercent) /\n                100;\n        }\n\n        return (payingContract.bidAmount - penaltyAmount);\n    }\n\n    function changeContractStatus(\n        uint contractId,\n        ContractStatus contractStatus\n    ) internal onlyOwner {\n        require(isContract(contractId), \"Contract does not exist.\");\n        contracts[contractId].contractStatus = contractStatus;\n\n        emit ContractStatusChanged(\n            contracts[contractId].contractId,\n            contracts[contractId].contractStatus\n        );\n    }\n\n    function getOpenContracts() external view returns (Contract[] memory) {\n        uint count = 0;\n        uint length = _contractCounter.current();\n        for (uint i = 1; i <= length; i++) {\n            if (contracts[i].contractStatus == ContractStatus.Open) {\n                count++;\n            }\n        }\n        Contract[] memory openContracts = new Contract[](count);\n        count = 0;\n        for (uint i = 1; i <= length; i++) {\n            if (contracts[i].contractStatus == ContractStatus.Open) {\n                openContracts[count] = contracts[i];\n                count++;\n            }\n        }\n        return openContracts;\n    }\n\n    function getContracts() public view returns (Contract[] memory) {\n        if (msg.sender == owner) {\n            uint count = _contractCounter.current();\n            Contract[] memory allContracts = new Contract[](count);\n            for (uint256 i = 0; i < count; i++) {\n                allContracts[i] = contracts[i+1];\n            }\n            return allContracts;\n\n            } else {\n            uint count = 0;\n            uint length = _contractCounter.current();\n            for (uint i = 0; i < length; i++) {\n                if (contracts[i].awardedTo == msg.sender) {\n                    count++;\n                }\n            }\n\n            Contract[] memory matchingContracts = new Contract[](count);\n            uint index = 0;\n            for (uint i = 0; i < length; i++) {\n                if (contracts[i].awardedTo == msg.sender) {\n                    matchingContracts[index] = contracts[i];\n                    index++;\n                }\n            }\n            return matchingContracts;\n        }\n    }\n\n    //FOR TESTING PURPOSES DELETE BEFORE DEPLOYING\n    function resetContract(uint _contractId) external onlyOwner {\n        require(isContract(_contractId), \"Contract does not exist.\");\n        changeContractStatus(_contractId, ContractStatus.Open);\n        contracts[_contractId].bidIds = new uint[](0);\n    }\n\n    // QUERY FUNCTIONS\n\n    function getOwner() external view returns (address) {\n        return owner;\n    }\n\n    function getContractor(\n        address contractor\n    ) external view returns (Contractor memory) {\n        return contractors[contractor];\n    }\n\n    function getContract(\n        uint contractId\n    ) external view returns (Contract memory) {\n        require(isContract(contractId), \"Contract does not exist.\");\n        return contracts[contractId];\n    }\n\n    function getBid(uint bidId) external view returns (Bid memory) {\n        require(isBid(bidId), \"Bid does not exist.\");\n        return bids[bidId];\n    }\n\n    function getContractStatus(\n        uint contractId\n    ) private view returns (ContractStatus) {\n        require(isContract(contractId), \"Contract does not exist.\");\n        return contracts[contractId].contractStatus;\n    }\n\n    function getBidStatus(uint bidId) private view returns (BidStatus) {\n        require(isBid(bidId), \"Bid does not exist.\");\n        return bids[bidId].bidStatus;\n    }\n\n    function getBidsOfContract(\n        uint contractId\n    ) public view returns (uint[] memory) {\n        require(isContract(contractId), \"Contract does not exist.\");\n\n        return contracts[contractId].bidIds;\n    }\n\n    function getContractBalance() public view returns (uint) {\n        return address(this).balance;\n    }\n\n    function isContractor(address contractor) private view returns (bool) {\n        return contractors[contractor].contractor != address(0);\n    }\n\n    function isContract(uint contractId) private view returns (bool) {\n        return contracts[contractId].contractId != 0;\n    }\n\n    function isBid(uint _bidId) private view returns (bool) {\n        return bids[_bidId].bidId != 0;\n    }\n\n    function isContractOpen(uint _contractId) private view returns (bool) {\n        require(isContract(_contractId), \"Contract does not exist.\");\n        return contracts[_contractId].contractStatus == ContractStatus.Open;\n    }\n\n    function isBidSubmittedToContract(\n        uint _bidId,\n        uint _contractId\n    ) public view returns (bool) {\n        require(isBid(_bidId), \"Bid does not exist.\");\n        require(isContract(_contractId), \"Contract does not exist.\");\n        for (uint i = 0; i < contracts[_contractId].bidIds.length; i++) {\n            if (contracts[_contractId].bidIds[i] == _bidId) {\n                return true;\n            }\n        }\n        return false;\n    }\n\n    function isAlreadyBiddedByContractor(\n        uint _contractId\n    ) public view returns (bool) {\n        require(isContractor(msg.sender), \"Contractor does not exist.\");\n        require(isContract(_contractId), \"Contract does not exist.\");\n        uint[] memory bidsOfContract = getBidsOfContract(_contractId);\n        for (uint i = 0; i < bidsOfContract.length; i++) {\n            uint bidId = bidsOfContract[i];\n            if (bids[bidId].contractor == msg.sender) {\n                return true;\n            }\n        }\n        return false;\n    }\n}\n",
  "sourcePath": "/Users/serhat/Library/CloudStorage/Dropbox/Projects/smart-contracts-dapp/contracts/Tender.sol",
  "compiler": {
    "name": "solc",
    "version": "0.8.20+commit.a1b79de6.Emscripten.clang"
  },
  "schemaVersion": "3.4.14",
  "updatedAt": "2023-06-24T19:06:20.642Z",
  "devdoc": {
    "kind": "dev",
    "methods": {},
    "version": 1
  },
  "userdoc": {
    "kind": "user",
    "methods": {},
    "version": 1
  }
}